:100000000C942A000C9447000C9447000C94470071
:100010000C9447000C9447000C9447000C94470044
:100020000C9447000C9447000C9447000C94470034
:100030000C9447000C9447000C9447000C94470024
:100040000C9447000C9447000C9447000C94470014
:100050000C94470011241FBECFE5D8E0DEBFCDBF12
:1000600010E0A0E6B0E0E2E1FCE002C005900D92F5
:10007000A039B107D9F710E0A0E9B0E001C01D92A6
:10008000A839B107E1F70E9410010C9407060C94FF
:10009000000097B1982B97B9369A3499FECF349ACD
:1000A00024B130E045B1942F80E0282B392BC901D1
:1000B000089580E487B987E886B90895DC01FB01DB
:1000C00020E030E007C0819191918A179B0744F4AA
:1000D0002F5F3F4F24173507B4F39A01215030406A
:1000E000C90108959C01609192007091930040E0D5
:1000F00050E00CC0C901880F991FE3E0220F331FA5
:10010000EA95E1F7280F391F4F5F5F4F46175707F2
:100110008CF38091960090919700820F931F90939B
:100120009700809396006F5F7F4F7093930060936A
:1001300092000895809190009091910083309105F4
:1001400034F40196909391008093900004C0109233
:1001500091001092900010929300109292000895D6
:1001600081309105C1F0823091051CF4892B41F05A
:10017000089582309105D1F0039709F042C02BC059
:100180008091940090919500209196003091970075
:10019000820F931F1BC08091940090919500209135
:1001A000960030919700821B930B10C080919400B1
:1001B000909195002091960030919700AC01429F5C
:1001C000C001439F900D529F900D11249093950074
:1001D0008093940008956091960070919700611546
:1001E000710529F410929500109294000895809161
:1001F0009400909195000E9408037093950060937D
:1002000094000895892B59F480919600909197005D
:10021000909581959F4F90939700809396000895B5
:100220008F929F92AF92BF92CF92DF92EF92FF9206
:100230001F93DF93CF93CDB7DEB72F970FB6F89408
:10024000DEBF0FBECDBF0E94CB0217BA8FE088BBC6
:100250008FEF8ABB80E487B987E886B9B0E9AB2E17
:10026000B1E0BB2E6E010894C11CD11CA0E68A2E01
:10027000A0E09A2E80E00E9449007C0186B316B36C
:10028000127080FD10C080919000909191000196B5
:10029000909391008093900088EB9BE0F50131975B
:1002A000F1F70197D9F700D000D000D0EDB7FEB735
:1002B0003196ADB7BEB71296DC92CE92119793826B
:1002C00082828091940090919500958384830E940E
:1002D0002F038DB79EB706960FB6F8949EBF0FBE3C
:1002E0008DBF81E060E00E94A902C6010E949C02CD
:1002F00080919000909191008130910509F457C050
:100300008230910509F472C0892B09F0B3CF123005
:1003100029F4EDE6F0E020E030E01CC0EDE6F0E08E
:1003200020E030E0808191818E159F0544F42F5F9D
:100330003F4F32962A303105A9F729E030E0C90154
:100340000E94720088EB9BE0F5013197F1F701976D
:10035000D9F7DFCF808191818E159F0544F42F5FFF
:100360003F4F32962A303105A9F729E030E000D01E
:1003700000D000D0EDB7FEB73196ADB7BEB712963C
:10038000DC92CE92119793828282358324830E94DD
:100390002F038DB79EB706960FB6F8949EBF0FBE7B
:1003A0008DBF81E061E00E94A902C60192C01230B7
:1003B00049F480918100909182008E159F050CF484
:1003C00061C081C080918100909182008E159F054F
:1003D0000CF06DC0109293001092920088EB9BE09D
:1003E000F5013197F1F70197D9F7E3CF123029F4EE
:1003F000E5E8F0E020E030E028C0E5E8F0E020E0CB
:1004000030E0808191818E159F0544F42F5F3F4F2E
:10041000329624303105A9F723E030E0C9010E946B
:10042000B0001092930010929200109297001092D8
:100430009600109291001092900088EB9BE0F501DD
:100440003197F1F70197D9F7D3CF808191818E153C
:100450009F053CF42F5F3F4F329624303105A9F7BA
:100460001FC02130310579F1223031051CF4232BD6
:1004700049F000CF2230310561F02330310509F019
:10048000F9CE0EC081E061E00E94A90285E690E00D
:1004900020C081E061E00E94A90289E690E019C0D5
:1004A00081E061E00E94A9028BE690E012C0809199
:1004B000960090919700909581959F4F909397000B
:1004C0008093960087CF81E061E00E94A90287E6D1
:1004D00090E00E949C02CECE80FF02C0DA9A01C05A
:1004E000DA9881FF02C0DB9A01C0DB9882FF02C06C
:1004F000DC9A01C0DC9883FF02C0DD9A0895DD9884
:1005000008951F93182FDE9A82958F700E946C02B7
:10051000DE98DE9A812F0E946C02DE9888EC90E0D3
:100520000197F1F71F910895DF980E9481020895C5
:10053000DF9A0E9481020895CF93DF93EC0103C0FC
:1005400021960E94980288818823D1F7DF91CF916C
:1005500008956295660F660F607C680F862F80682D
:100560000E949402089581E00E94940280E49FE139
:100570000197F1F7089582E00E94940280E49FE1E0
:100580000197F1F7089588E10E94940208958CE1A3
:100590000E94940208951F93CF93DF93D29AD39A27
:1005A000D49AD59AD69AD79A80E69AEE0197F1F71F
:1005B000DF98DE9810E0C0E2DEE4DE9A83E00E947D
:1005C0006C02DE98CE010197F1F71F5F1330A9F797
:1005D000DE9A82E00E946C02DE9880EA9FE001973A
:1005E000F1F788E20E94940288E00E94940281E080
:1005F0000E94940280E49FE10197F1F786E00E9457
:1006000094028CE00E949402DF91CF911F91089593
:1006100097FB092E07260AD077FD04D00CD006D010
:1006200000201AF4709561957F4F0895F6F7909524
:1006300081959F4F0895AA1BBB1B51E107C0AA1FBC
:10064000BB1FA617B70710F0A61BB70B881F991F73
:100650005A95A9F780959095BC01CD010895AEE01B
:10066000B0E0E5E3F3E00C94DE050D891E8986E039
:100670008C831A8309838FEF9FE79E838D839E016E
:10068000275E3F4FCE0101966F89788DA9010E94A8
:1006900053032F813885020F131FF80110822E9605
:1006A000E4E00C94FA05ABE0B0E0E9E5F3E00C948B
:1006B000D0053C012B015A01FC011782168283816F
:1006C00081FD03C06FEF7FEFC6C19AE0892E1E0146
:1006D0000894211C311CF3012381F20123FD859133
:1006E00023FF81912F01882309F4B2C1853239F4A7
:1006F00023FD859123FF81912F01853229F490E01C
:10070000B3010E944605E7CF982FFF24EE249924D9
:10071000FFE1FF15D0F09B3269F09C3228F4903253
:1007200059F0933291F40EC09D3249F0903369F440
:1007300041E024C052E0F52A84E0F82A28C098E07D
:10074000F92A25C0E0E1FE2A22C0F7FC29C0892F42
:1007500080538A3070F4F6FE05C0989C902C1124CA
:10076000980E15C0E89CE02C1124E80EF0E2FF2A58
:100770000EC09E3229F4F6FC6BC140E4F42A07C097
:100780009C3619F450E8F52A02C0983649F4F20173
:1007900023FD959123FF91912F01992309F0B8CF63
:1007A000892F8554833018F08052833038F444E028
:1007B00050E0A40EB51E5FE359830FC0933631F0AD
:1007C000933779F0933509F056C020C0F501808148
:1007D000898342E050E0A40EB51E610101E010E003
:1007E00012C0F501C080D180F6FC03C06FEF7FEF2F
:1007F00002C0692D70E042E050E0A40EB51EC601B3
:100800000E943B058C015FE7F52214C0F501C08012
:10081000D180F6FC03C06FEF7FEF02C0692D70E05E
:1008200042E050E0A40EB51EC6010E9430058C01C6
:1008300050E8F52AF3FE07C01AC080E290E0B30149
:100840000E944605EA948E2D90E008171907A8F338
:100850000EC0F601F7FC8591F7FE81916F0190E0E3
:10086000B3010E944605E110EA94015010400115C1
:10087000110579F7EAC0943611F0993669F5F7FE5B
:1008800008C0F501208131814281538184E090E0EC
:100890000AC0F501808191819C01442737FD409574
:1008A000542F82E090E0A80EB91E9FE6F92257FF70
:1008B00009C050954095309521953F4F4F4F5F4F60
:1008C000E0E8FE2ACA01B901A1012AE030E00E9455
:1008D0007205D82ED21840C0953729F41F2D1F7EDF
:1008E0002AE030E01DC01F2D197F9F3661F0903740
:1008F00020F4983509F0ACC00FC0903739F0983724
:1009000009F0A6C004C028E030E00AC0106114FD60
:10091000146020E130E004C014FD166020E132E0F4
:1009200017FF08C0F501608171818281938144E0E5
:1009300050E008C0F50180819181BC0180E090E029
:1009400042E050E0A40EB51EA1010E947205D82E0F
:10095000D2188FE7F82EF122F6FE0BC05EEFF522DB
:10096000D91438F4F4FE07C0F2FC05C08FEEF8226B
:1009700002C01D2D01C0192DF4FE0DC0FE01ED0DAC
:10098000F11D8081803319F499EEF92208C01F5FB0
:10099000F2FE05C003C08F2D867809F01F5F0F2D72
:1009A000F3FC14C0F0FE0FC01E1510F09D2C0BC000
:1009B0009D2C9E0C911A1E2D06C080E290E0B30182
:1009C0000E9446051F5F1E15C0F304C01E1510F4DB
:1009D000E11A01C0EE2404FF0FC080E390E0B301F0
:1009E0000E94460502FF1DC001FD03C088E790E09C
:1009F0000EC088E590E00BC0802F867891F001FF53
:100A000002C08BE201C080E2F7FC8DE290E0B3010E
:100A10000E94460506C080E390E0B3010E944605AF
:100A20009A94D914C0F3DA94F101ED0DF11D80818F
:100A300090E0B3010E944605DD20A9F706C080E2E0
:100A400090E0B3010E944605EA94EE20C1F743CE40
:100A5000F30166817781CB012B96E2E10C94EC05E2
:100A6000FC010590615070400110D8F78095909579
:100A70008E0F9F1F0895FC0161507040019001107E
:100A8000D8F7809590958E0F9F1F08950F931F9311
:100A9000CF93DF938C01EB018B8181FF1BC082FF21
:100AA0000DC02E813F818C819D812817390764F408
:100AB000E881F9810193F983E88306C0E885F98527
:100AC000802F0995892B31F48E819F8101969F8318
:100AD0008E8302C00FEF1FEFC801DF91CF911F91EE
:100AE0000F910895FA01AA27283051F1203181F1A0
:100AF000E8946F936E7F6E5F7F4F8F4F9F4FAF4F26
:100B0000B1E03ED0B4E03CD0670F781F891F9A1F38
:100B1000A11D680F791F8A1F911DA11D6A0F711DEC
:100B2000811D911DA11D20D009F468943F912AE0F8
:100B3000269F11243019305D3193DEF6CF010895E0
:100B4000462F4770405D4193B3E00FD0C9F7F6CF11
:100B5000462F4F70405D4A3318F0495D31FD4052D9
:100B6000419302D0A9F7EACFB4E0A695979587956F
:100B700077956795BA95C9F700976105710508954E
:100B80009B01AC010A2E06945795479537952795FA
:100B9000BA95C9F7620F731F841F951FA01D089592
:100BA0002F923F924F925F926F927F928F929F927D
:100BB000AF92BF92CF92DF92EF92FF920F931F936B
:100BC000CF93DF93CDB7DEB7CA1BDB0B0FB6F8941C
:100BD000DEBF0FBECDBF09942A88398848885F845C
:100BE0006E847D848C849B84AA84B984C884DF80CD
:100BF000EE80FD800C811B81AA81B981CE0FD11DB1
:100C00000FB6F894DEBF0FBECDBFED010895F89486
:020C1000FFCF14
:100C120025313564002B002D002A002F000100022F
:100C22000003000400070009000E001E00640052C9
:100C3200030E000F00030009001E00520301000012
:00000001FF
