:100000000C942A000C943F000C943F000C943F0089
:100010000C943F000C943F000C943F000C943F0064
:100020000C943F000C943F000C943F000C943F0054
:100030000C943F000C943F000C943F000C943F0044
:100040000C943F000C943F000C943F000C943F0034
:100050000C943F0011241FBECFE5D8E0DEBFCDBF1A
:1000600010E0A0E6B0E0E0E6F9E002C005900D92F5
:10007000AE36B107D9F70E9441000C94AE040C943F
:1000800000006F927F928F929F92AF92BF92DF9209
:10009000EF92FF920F931F93DF93CF93CDB7DEB70D
:1000A0002F970FB6F894DEBF0FBECDBF0E9472012E
:1000B00017BA8FE088BB00E010E0EE24FF24DD24B7
:1000C0005E010894A11CB11C90E6892E90E0992E47
:1000D00080E9682E81E0782E86B396B326B346B3C6
:1000E00080FD02C00F5F1F4F91FD02C00150104004
:1000F00022FD21C0DD2019F4E00EF11E1AC081E0BE
:10010000D81619F4E01AF10A14C092E0D91631F4A5
:10011000C701B8010E94AF017B010BC0A3E0DA1652
:1001200041F4C701809F7001819FF00C909FF00CFB
:10013000112400E010E043FD03C0D39493E0D922E2
:1001400000D000D000D0EDB7FEB73196ADB7BEB746
:100150001296BC92AE92119793828282F582E482CB
:100160000E94D6018DB79EB706960FB6F8949EBF33
:100170000FBE8DBF81E060E00E945001C5010E946A
:10018000430100D000D000D0EDB7FEB73196ADB737
:10019000BEB71296BC92AE9211979382828215835B
:1001A00004830E94D6018DB79EB706960FB6F894C9
:1001B0009EBF0FBE8DBF81E061E00E945001C5016E
:1001C0000E94430188EB9BE0F3013197F1F701971F
:1001D000D9F7DD2039F480E060E00E94500185E627
:1001E00090E01EC091E0D91639F480E060E00E94F2
:1001F000500187E690E014C0A2E0DA1639F480E0FE
:1002000060E00E94500189E690E00AC0B3E0DB168E
:1002100009F062CF80E060E00E9450018BE690E040
:100220000E94430159CF80FF02C0DA9A01C0DA98D8
:1002300081FF02C0DB9A01C0DB9882FF02C0DC9A1A
:1002400001C0DC9883FF02C0DD9A0895DD9808950F
:100250001F93182FDE9A82958F700E941301DE98EB
:10026000DE9A812F0E941301DE9888EC90E00197BE
:10027000F1F71F910895DF980E9428010895DF9AF1
:100280000E9428010895CF93DF93EC0103C02196CB
:100290000E943F0188818823D1F7DF91CF91089593
:1002A0006295660F660F607C680F862F80680E94DB
:1002B0003B01089581E00E943B0180E49FE10197AA
:1002C000F1F7089582E00E943B0180E49FE10197ED
:1002D000F1F7089588E10E943B0108958CE10E94A6
:1002E0003B0108951F93CF93DF93D29AD39AD49A68
:1002F000D59AD69AD79A80E69AEE0197F1F7DF98C9
:10030000DE9810E0C0E2DEE4DE9A83E00E94130192
:10031000DE98CE010197F1F71F5F1330A9F7DE9A3F
:1003200082E00E941301DE9880EA9FE00197F1F7D6
:1003300088E20E943B0188E00E943B0181E00E942C
:100340003B0180E49FE10197F1F786E00E943B01C9
:100350008CE00E943B01DF91CF911F91089597FBA4
:10036000092E07260AD077FD04D00CD006D0002035
:100370001AF4709561957F4F0895F6F790958195E1
:100380009F4F0895AA1BBB1B51E107C0AA1FBB1FAB
:10039000A617B70710F0A61BB70B881F991F5A9511
:1003A000A9F780959095BC01CD010895AEE0B0E02D
:1003B000ECEDF1E00C9485040D891E8986E08C83B8
:1003C0001A8309838FEF9FE79E838D839E01275EAB
:1003D0003F4FCE0101966F89788DA9010E94FA01E5
:1003E0002F813885020F131FF80110822E96E4E04A
:1003F0000C94A104ABE0B0E0E0E0F2E00C947704F0
:100400003C012B015A01FC0117821682838181FD78
:1004100003C06FEF7FEFC6C19AE0892E1E010894DA
:10042000211C311CF3012381F20123FD859123FF5F
:1004300081912F01882309F4B2C1853239F423FD5B
:10044000859123FF81912F01853229F490E0B3013A
:100450000E94ED03E7CF982FFF24EE249924FFE1BB
:10046000FF15D0F09B3269F09C3228F4903259F09D
:10047000933291F40EC09D3249F0903369F441E01B
:1004800024C052E0F52A84E0F82A28C098E0F92A2E
:1004900025C0E0E1FE2A22C0F7FC29C0892F805345
:1004A0008A3070F4F6FE05C0989C902C1124980EAA
:1004B00015C0E89CE02C1124E80EF0E2FF2A0EC0E3
:1004C0009E3229F4F6FC6BC140E4F42A07C09C3646
:1004D00019F450E8F52A02C0983649F4F20123FDD8
:1004E000959123FF91912F01992309F0B8CF892F7E
:1004F0008554833018F08052833038F444E050E063
:10050000A40EB51E5FE359830FC0933631F09337C5
:1005100079F0933509F056C020C0F50180818983B8
:1005200042E050E0A40EB51E610101E010E012C0EF
:10053000F501C080D180F6FC03C06FEF7FEF02C0F1
:10054000692D70E042E050E0A40EB51EC6010E9485
:10055000E2038C015FE7F52214C0F501C080D18071
:10056000F6FC03C06FEF7FEF02C0692D70E042E040
:1005700050E0A40EB51EC6010E94D7038C0150E8BE
:10058000F52AF3FE07C01AC080E290E0B3010E9492
:10059000ED03EA948E2D90E008171907A8F30EC01A
:1005A000F601F7FC8591F7FE81916F0190E0B301B0
:1005B0000E94ED03E110EA9401501040011511056D
:1005C00079F7EAC0943611F0993669F5F7FE08C05C
:1005D000F501208131814281538184E090E00AC09D
:1005E000F501808191819C01442737FD4095542F6E
:1005F00082E090E0A80EB91E9FE6F92257FF09C0DD
:1006000050954095309521953F4F4F4F5F4FE0E813
:10061000FE2ACA01B901A1012AE030E00E941904B2
:10062000D82ED21840C0953729F41F2D1F7E2AE0FE
:1006300030E01DC01F2D197F9F3661F0903720F4E8
:10064000983509F0ACC00FC0903739F0983709F0F1
:10065000A6C004C028E030E00AC0106114FD146098
:1006600020E130E004C014FD166020E132E017FF05
:1006700008C0F501608171818281938144E050E07E
:1006800008C0F50180819181BC0180E090E042E0EA
:1006900050E0A40EB51EA1010E941904D82ED21854
:1006A0008FE7F82EF122F6FE0BC05EEFF522D9148B
:1006B00038F4F4FE07C0F2FC05C08FEEF82202C049
:1006C0001D2D01C0192DF4FE0DC0FE01ED0DF11D13
:1006D0008081803319F499EEF92208C01F5FF2FE81
:1006E00005C003C08F2D867809F01F5F0F2DF3FC26
:1006F00014C0F0FE0FC01E1510F09D2C0BC09D2CD9
:100700009E0C911A1E2D06C080E290E0B3010E945B
:10071000ED031F5F1E15C0F304C01E1510F4E11A8F
:1007200001C0EE2404FF0FC080E390E0B3010E94FB
:10073000ED0302FF1DC001FD03C088E790E00EC07D
:1007400088E590E00BC0802F867891F001FF02C011
:100750008BE201C080E2F7FC8DE290E0B3010E94E1
:10076000ED0306C080E390E0B3010E94ED039A948C
:10077000D914C0F3DA94F101ED0DF11D808190E000
:10078000B3010E94ED03DD20A9F706C080E290E0EE
:10079000B3010E94ED03EA94EE20C1F743CEF301CA
:1007A00066817781CB012B96E2E10C949304FC01E6
:1007B0000590615070400110D8F7809590958E0F8C
:1007C0009F1F0895FC016150704001900110D8F7FF
:1007D000809590958E0F9F1F08950F931F93CF9331
:1007E000DF938C01EB018B8181FF1BC082FF0DC069
:1007F0002E813F818C819D812817390764F4E8811F
:10080000F9810193F983E88306C0E885F985802F93
:100810000995892B31F48E819F8101969F838E8368
:1008200002C00FEF1FEFC801DF91CF911F910F9111
:100830000895FA01AA27283051F1203181F1E89476
:100840006F936E7F6E5F7F4F8F4F9F4FAF4FB1E0C3
:100850003ED0B4E03CD0670F781F891F9A1FA11DBE
:10086000680F791F8A1F911DA11D6A0F711D811DBF
:10087000911DA11D20D009F468943F912AE0269F84
:1008800011243019305D3193DEF6CF010895462FE3
:100890004770405D4193B3E00FD0C9F7F6CF462FC4
:1008A0004F70405D4A3318F0495D31FD405241932D
:1008B00002D0A9F7EACFB4E0A695979587957795EA
:1008C0006795BA95C9F700976105710508959B0171
:1008D000AC010A2E06945795479537952795BA95FA
:1008E000C9F7620F731F841F951FA01D08952F92D3
:1008F0003F924F925F926F927F928F929F92AF92B0
:10090000BF92CF92DF92EF92FF920F931F93CF93FC
:10091000DF93CDB7DEB7CA1BDB0B0FB6F894DEBF93
:100920000FBECDBF09942A88398848885F846E84B9
:100930007D848C849B84AA84B984C884DF80EE8003
:10094000FD800C811B81AA81B981CE0FD11D0FB60C
:10095000F894DEBF0FBECDBFED010895F894FFCF30
:0E09600025313564002B002D002F002A0000E9
:00000001FF
